:100000000C944B020C9468020C9468020C94A01D92
:100010000C9468020C9468020C9468020C946802B8
:100020000C9468020C9468020C94E01A0C94B81BAF
:100030000C94C70E0C9468020C9468020C9468022D
:100040000C9468020C9468020C9468020C94680288
:100050000C9468020C94BC1A0C9468020C9468020C
:100060000C9468020C9468020C9468020C94680268
:100070000C9468020C9468020C9468020C94680258
:100080000C9468020C9468020C9468020C94680248
:100090000C9468020C9468020C9468020C94680238
:1000A0000C9468020C9468020C94680200AF00AED5
:1000B00005010980A101850319012AB70015012650
:1000C000B700950175108100C0050C0901A10185DB
:1000D0000419012AA002150126A0029501751081BC
:1000E00000C005010906A1018506050719E029E7F9
:1000F000150025019508750181020507190029EFF2
:100100001500250195F075018102050819012905E1
:10011000950575019102950175039101C0050109CD
:1001200006A101050719E029E715002501950875C5
:100130000181029501750881010507190029FF1544
:100140000026FF009506750881000508190129059C
:100150001500250195057501910295017503910121
:10016000C009023B00020100A0FA090400000103DB
:10017000010100092111010001224400070581034A
:100180000800010904010001030000000921110118
:100190000001226D00070582032000011201000208
:1001A00000000008594D02000100010200011A037D
:1001B0004E006F006F0064006C00650020004B0073
:1001C0007900720069006100000024034D006500A1
:1001D0007300720069006E00650020004E0061002F
:1001E0007400680061006E00610065006C00000032
:1001F0000403090400DA0281FFD9F1DB20A4A62E52
:10020000AF00A0C0D30000A1C8D30000AED580A825
:100210001F408D142000000000001700150008008A
:100220001A0014002B00000000000A00090007005B
:1002300016000400E00024524C00050019000600DE
:100240001B001D00E10021522C002252E2000000A0
:10025000000000000000000000001C0018000C005E
:1002600012001300E400000000000B000D000E005F
:100270000F0033003400E3002900110010003600A5
:1002800037003800E1002A002800407E417E00004F
:1002900000000000000000000000220021002000FB
:1002A0001F001E0035000000000022022102200273
:1002B0001F021E020100010001003E003D003C0043
:1002C0003B003A00010001000100010001000000B4
:1002D00001000000000000000000230024002500B1
:1002E000260027002D000000000023022402250222
:1002F000260227022E00010001003F0040004100BD
:100300004200430001000100010026022702000014
:100310000100000000000000000001004200410058
:100320004000010001000000000001003F003E000D
:100330003D00010001000100010001003C003B0004
:100340003A0001000100010001000100010000006D
:100350000100000000000000000001002400250052
:100360002600010001000000000001002100220021
:1003700023000100E4000100010001001E001F0035
:1003800020000100010001000100270027000000FB
:10039000010000000000000000000000000000005C
:1003A000000000000000000000000000000000004D
:1003B000000000000000000000000000000000003D
:1003C000000000000000000000000000000000002D
:1003D000000000000000000000000000000000001D
:1003E000000000000000000000000000000000000D
:1003F00000000000000000000000000000000000FD
:1004000000000000000000000000000000000000EC
:1004100000000000000000000000010001000100D9
:1004200001000100010000000000010001000100C6
:1004300001000100010001000100010001000100B4
:1004400001000100010001000100010001000000A5
:100450000100000000000000000001000100520047
:10046000010001002078000000004A005000510007
:100470004F004D0023780100010001000100010040
:1004800001000100247801000100007C027C0000D2
:1004900001000000000011241FBECFEFDAE0DEBF34
:1004A000CDBF11E0A0E0B1E0E2E5FFE302C00590BE
:1004B0000D92A837B107D9F724E0A8E7B1E001C051
:1004C0001D92AD3CB207E1F70E9430170C94741FE7
:1004D0000C94000090938504809384040895909375
:1004E000870480938604089521E030E002C0220F43
:1004F000331F8A95E2F78091860490918704822BBE
:10050000932B0E946F02089521E030E002C0220F79
:10051000331F8A95E2F7209530958091860490915B
:100520008704822393230E946F020895282F292B8A
:10053000283070F528E0929FF0011124E80FF11D9A
:10054000877041E001C0440F8A95EAF783E0F69591
:10055000E7958A95E1F7EE0FFF1FEE0FFF1FE15AB7
:10056000FB4F80E090E070E05191DF0111979B011B
:10057000082E02C0369527950A94E2F7217021953E
:100580002527242325272C9301968430910561F794
:100590000895292F282B283060F528E0929FF0013C
:1005A0001124E80FF11D982F977083E0F695E795D9
:1005B0008A95E1F7EE0FFF1FEE0FFF1FE15AFB4F89
:1005C00040E050E080E0219130E0092E02C03695F5
:1005D00027950A94E2F721703327042E01C0220FD9
:1005E0000A94EAF7822B4F5F5F4F4430510559F769
:1005F000089580E0089580918D0490918C04981363
:1006000001C008958F5F8770FACF9091880480951C
:10061000892380938804282F277021110DC0891702
:1006200059F090918A0492FF07C086958695869529
:100630000E94840210928804089580918104909110
:100640008B04892B509182045523C1F090912A018B
:100650009923A9F09091890497FF11C09DE124E8A6
:1006600031E040E0F90160812F5F3F4F61114F5F42
:100670009150C0F7411110928204852B089595E0A6
:100680002CE731E0EECF982F90958091810489235B
:10069000809381040895962F972B9830B0F485307D
:1006A000B8F498E0899FF0011124E70FF11D83E071
:1006B000EE0FFF1F8A95E1F7E60FF11DEE0FFF1F0A
:1006C000EA5EFD4F85919491089580E090E0089551
:1006D00081E0FCCF803E9105D1F1C8F481339105D2
:1006E00009F47FC048F48932910509F46FC08A3259
:1006F000910509F47DC0089589339105E1F08238B0
:100700009105C9F08533910509F45BC00895843ED5
:100710009105D1F148F4823E910531F1833E910576
:1007200041F181EE90E00895863E9105C1F1873E4A
:100730009105E1F10895209189042370211165C08C
:1007400020918A0423FF14C089E290E0089520914B
:10075000890420FD43C030918A0430FF09C024FF82
:100760004EC080E090E008952091890422FDF7CFEB
:1007700008952091890422FD45C030918A0430FDFE
:1007800044C024FFF5CFEDCF20918A0421FFF0CFA4
:100790008091890484FDE5CF87EE90E00895209153
:1007A000890423FFE5CF24FDDCCFF6CF2091890417
:1007B00023FD2EC030918A0431FFE3CF84EE90E018
:1007C00008952091890425FFD3CFBECF20918904BD
:1007D00025FD21C020918A0423FFCACF89E390E040
:1007E00008952091890426FFC3CF8AE290E00895FE
:1007F0002091890426FFBCCF81E390E0089583EE29
:1008000090E0089582EE90E0089580EE90E00895E3
:1008100086EE90E0089585E390E0AACF9091890458
:1008200092FF10C041E0282F2471243009F040E0ED
:1008300031E0282F2871283009F030E0431711F0FB
:100840002CE0822793FF10C041E0282F247124312F
:1008500009F040E031E0282F2871283109F030E01C
:10086000431711F02CE0822730918A0430FF10C02A
:1008700051E0282F2171213009F050E041E0282F6C
:100880002871283009F040E0541711F029E0822740
:1008900031FF10C041E0282F2171213109F040E0E3
:1008A00031E0282F2871283109F030E0431711F08A
:1008B00029E0822794FD877E08951F93CF93DF93CD
:1008C0000E946A03EC01811522E5920708F053C0EB
:1008D000811540E5940708F0DDC0803E9105F8F4ED
:1008E0008D3C910508F0AEC0883A910580F4853AB8
:1008F000910508F099C08130910521F00497813A63
:10090000910550F4CE01DF91CF911F910895885A3F
:1009100091094B9708F48BC0C0E0D0E0F3CF81156C
:1009200050E49507F8F4C11580E2D80708F0CBC071
:10093000C83ED10538F3CE019A9581159F4160F7E5
:100940008D2F0E940E04182FCE0199270E946A0352
:10095000212F30E0322F2227E901CC27DF71C82B6D
:10096000D92BD0CF99270E946A03CC27DF70C82BE0
:10097000D92BD06AC7CF803842E59407C8F58036B6
:1009800052E5950708F067C0C03482E5D807B0F09B
:100990008C2F86958695877020E2829FC001112456
:1009A000C37021E030E0A90102C0440F551FCA9571
:1009B000E2F7EA01C82BD92BDC68A4CFC03252E59C
:1009C000D50708F041C08C2F8695869520E2829F3E
:1009D000C0011124C37021E030E0A90102C0440F1E
:1009E000551FCA95E2F7EA01C82BD92BDD688ACFDB
:1009F000803C52E5950760F48F71C03AD24508F00B
:100A00003FC090E0982F8827EC01C46FD06A7ACF5E
:100A1000805C9245809708F07FCFDC2FCC27CC27D5
:100A2000DF71C06FD06A6ECFA497D0646BCFC85A05
:100A3000D0E0CC0FDD1FCF5BDE4F0990D881C02DF9
:100A4000D46460CFD0655ECFCF71D0E0DC2FCC27EF
:100A5000C16FD06A57CF86958695877020E2829FB6
:100A6000C0011124C37021E030E0A90102C0440F8D
:100A7000551FCA95E2F7EA01C82BD92BDA6842CF95
:100A80000E940E04C82FD0E0DC2FCC27CC27DF71CA
:100A9000D06238CF8F710E940E0465E0D695C7955D
:100AA0006A95E1F7CF70D0E0DC2FCC27282F30E01B
:100AB00084FF05C054E0220F331F5A95E1F7C22B83
:100AC000D32BD0691FCF8D2F8F710E940E04182F4A
:100AD000CE0199270E946A03212F30E0322F22276E
:100AE00022273F71282B392BE901D2CFA0E0B0E0BB
:100AF000ECE7F5E00C94D81E8C01E0908604F090B1
:100B000087048091840490918504E82AF92ACFE033
:100B1000D0E0CC24C394D12CC6010C2E02C0880F87
:100B2000991F0A94E2F78E219F21892B49F421977E
:100B300098F7B12C8B2DCDB7DEB7E9E00C94F41EFD
:100B4000BC2EB8018C2F0E944B030E945D040197BC
:100B500071F3F0CF0F931F93CF93FC018581008138
:100B60001181882391F0662381F0C8010E947605E7
:100B7000C82F682FC8010E949602B8018C2F0E94CE
:100B80004B03CF911F910F910895C8010E94C90294
:100B9000C82FF3CFCF93DF93D82FC92F0E947605AC
:100BA0006D2F7C2F0E944B030E945D04DF91CF913B
:100BB0000895FC0184818823A1F0808191810E94A5
:100BC000CA05282F92959F70963091F060F4925F3D
:100BD0009F70923030F481E0203F79F030F4283E6D
:100BE00030F080E004C09A5FF3CF243FD1F708953E
:100BF00081E0283E18F0213FF9CF0895089580E064
:100C00000895F894E82FE295EF70F0E041A18F701D
:100C100021E030E0B90102C0660F771F8A95E2F744
:100C2000CB01962F9095942391A392A1892B82A317
:100C30007894089580912D04882359F0E09155040B
:100C4000F0915604309729F00190F081E02D09953C
:100C5000089580E00895A3E0B0E0E1E3F6E00C94AD
:100C6000DF1E9C018091C6019091C70182179307F6
:100C7000A1F03093C7012093C601E0915504F09193
:100C80005604309751F083E089833B832A830084A4
:100C9000F185E02DCE01019609952396E2E00C94B2
:100CA000FB1EA3E0B0E0E7E5F6E00C94DF1E9C013C
:100CB0008091C4019091C50182179307A1F03093F0
:100CC000C5012093C401E0915504F091560430977A
:100CD00051F084E089833B832A830084F185E02DF1
:100CE000CE01019609952396E2E00C94FB1E9091AB
:100CF0002A019923C1F09091890497FF14C0E82F2D
:100D0000E695E695E695803FF8F4F0E0EE57FE4F65
:100D1000877021E030E001C0220F8A95EAF78281D6
:100D2000822B82830895ACE7B1E0EFEF90E02D9144
:100D3000821751F0EF3F19F4211101C0E92F9F5F95
:100D40009630A9F7EF3F09F408950E2E000CFF0B23
:100D5000E658FE4FE6CF90912A019923E1F0909159
:100D6000890497FF18C0E82FE695E695E695803F41
:100D7000F0F4F0E0EE57FE4F877021E030E0A9017B
:100D800002C0440F551F8A95E2F7CA0180959281EF
:100D9000892382830895ECE7F1E09191891303C0E0
:100DA000DF0111971C9251E0E238F507B1F7089581
:100DB000A4E0B0E0EEEDF6E00C94DF1E8FB7F894FF
:100DC000209118043091190440911A0450911B0489
:100DD00029833A834B835C838FBF69817A818B81BE
:100DE0009C812496E2E00C94FB1EA4E0B0E0EBEFC3
:100DF000F6E00C94DF1E80912D04882371F00E9490
:100E0000D80669837A838B839C8369817A818B81FD
:100E10009C812496E2E00C94FB1E0E94D806698314
:100E20007A838B839C8380912F0490913004A091CE
:100E30003104B091320429813A814B815C81280FC1
:100E4000391F4A1F5B1F29833A834B835C83DDCFA5
:100E500087E797E7909301088093000888E19AE07C
:100E60000FB6F894A895809360000FBE9093600031
:100E7000FFCF8091C30108950895FC019B018091EB
:100E8000B9019091BA018617970740F0672B29F4B2
:100E90008091E8008E778093E800C90140E00097D8
:100EA00041F4411106C08091E80082FF2FC080E02C
:100EB00008952091D4012223A9F12530A9F1209190
:100EC000E80023FD2DC02091E80022FDECCF209109
:100ED000E80020FFE4CF3091F3002091F20000976A
:100EE00019F02830310558F041E02830310509F07B
:100EF00040E02091E8002E772093E800D0CF419188
:100F00004093F10001972F5F3F4FE9CF8091D401CB
:100F1000882341F0853041F08091E80083FFC3CF02
:100F200081E0089582E0089583E008958091B301FF
:100F300087FF13C08091E80082FF06C08091E8001F
:100F40008B778093E80004C08091D4018111F2CFA7
:100F500008958091D4018823D9F38091E80080FF1F
:100F6000F8CF8091E8008E77ECCF2091E4003091AB
:100F7000E50095E6A9018091EC008170882331F0AD
:100F80008091E80080FF06C080E008952091E8008D
:100F900022FD1BC08091D401882391F0853091F00F
:100FA0008091EB0085FD10C02091E4003091E500B8
:100FB0004217530701F391509111DCCF84E008955B
:100FC00082E0089583E0089581E00895E8EDF0E07F
:100FD00080818E7F80831092E2001092DA0010925E
:100FE000E100A0EEB0E08C9181608C9380818F77DE
:100FF000808319BCA7EDB0E08C918E7F8C938081AB
:101000008F7E80831092B2010895FC01AC014C5F89
:101010005F4F8FEF91E32191822728E030E087FF37
:101020000BC0880F89272150310921153105B9F7E7
:10103000E417F50781F70895880FF5CF982FE42F6F
:10104000E2709093E900891308C0762F242F50E0B6
:10105000E11111C091E0980FF4CF7091EC00209154
:10106000ED005091F00021FD06C09F5F973049F7D9
:101070008093E90008953091EB003E7F3093EB00C0
:101080003091ED003D7F3093ED003091EB00316009
:101090003093EB007093EC002093ED005093F00040
:1010A0002091EE0027FDE1CF0895A0E0B0E0EBE550
:1010B000F8E00C94D91EC8EDD0E088818F7E88833B
:1010C000E7EDF0E080818160808384E082BF81E091
:1010D0008093B20188818E7F888302EE10E0F80150
:1010E00010821092DA0081EEC82ED12CF601108207
:1010F00088818F77888388818068888388818F7DC5
:10110000888319BC1092D4011092B1011092D301BE
:101110001092B00190EEE92EF12CF70180818B7FC7
:10112000808388818160888342E060E080E00E9463
:101130001E08F60180818E7F8083F80180818160A6
:101140008083808188608083F70180818E7F8083A7
:10115000888180618883CDB7DEB7E8E00C94F51E06
:10116000E0918D0490918C0427E0E91302C080E0A7
:101170000895AE2FB0E02E9FF0011124E257FB4FEF
:101180003181361306C03081381303C035813413E2
:1011900004C0FD013196E770E8CF81E008950F9318
:1011A0001F93CF93DF93EB018A019091D401943088
:1011B00079F58093E9008FEF9091E80095FD07C0E5
:1011C00095ED9A95F1F7000081508111F5CF80914E
:1011D000E80085FF1DC00E94B507811114C08091F1
:1011E000E80085FD06C08091E8008E778093E800D6
:1011F000F2CF88818093F10001501109011511058A
:1012000011F02196ECCF8091E8008E778093E80072
:10121000DF91CF911F910F910895CF93DF93D82F36
:10122000C92F48E050E0682F792F81E00E94CF0855
:1012300088E0ED2FFC2FABEBB1E001900D928A9589
:10124000E1F7DF91CF910895BC0140E250E082E0E8
:101250000E94CF080895BC0143E050E082E00E9464
:10126000CF080895A0E0B0E0E8E3F9E00C94D71EC1
:10127000F82EE92EB62EA72E8A018091AE01CC243D
:10128000C394D12C8A3018F48AE0C82ED12CC1E046
:10129000D0E06B2D7A2D8F2D9E2DF80109958111AF
:1012A00016C02196CC16DD0694F0CC9FC001CD9FD0
:1012B000900D900D112420E030E045E34A95F1F7C0
:1012C00000002F5F3F4F28173907B9F7E2CFCDB79E
:1012D000DEB7EAE00C94F31E90918A0492FB222779
:1012E00020F9281779F080FB92F990938A04609195
:1012F000890470918A0484E090E00E945E1F82E07D
:101300000E940503089580912A01882359F1809154
:10131000890487FF27C00E941D038093830140E258
:1013200050E065E374E082E891E00E940C1F892B95
:10133000C1F080E2E2E8F1E0A5E3B4E001900D92B3
:101340008A95E1F7E0915504F0915604309749F001
:1013500086E0809382010480F581E02D82E891E0AF
:10136000099508950E941D0380937A0148E050E09A
:1013700067E574E08AE791E00E940C1F892B89F3EE
:1013800088E0EAE7F1E0A7E5B4E001900D928A95E4
:10139000E1F7E0915504F0915604309711F3028083
:1013A000F381E02D8AE791E0DBCFCF93C82F88232C
:1013B000B1F18CEF8C0F813AA0F580912A0188233E
:1013C00001F18091890487FF1CC0EC2FE695E6951A
:1013D000E695F0E0EE57FE4F828190E04C2F47708B
:1013E00021E030E002C0220F331F4A95E2F782234A
:1013F0009323892B79F08C2F0E94AB060E948309DE
:1014000009C0ECE7F1E08191C817A9F321E0E238C7
:10141000F207C9F78C2F0E9477060E948309CF91AB
:10142000089580E28C0F883068F4C77081E090E006
:1014300001C0880FCA95EAF7C0918104C82BC093F8
:101440008104EBCF8BE58C0F833038F42C2F2452A2
:10145000330BC9010E942B06E2CFC85ACB31F8F6F4
:10146000EC2FF0E0EE0FFF1FEF5BFE4F80819181CC
:101470000E945106D4CF882339F19CEF980F913AFE
:1014800028F40E94AB060E948309089590E2980F09
:10149000983050F4877091E001C0990F8A95EAF76F
:1014A000892F0E944303EFCF9BE5980F933028F4D8
:1014B00080E090E00E942B060895885A8B3120F43A
:1014C00080E090E00E9451060895882339F09091C1
:1014D0008104892B809381040E94830908958823C5
:1014E00021F00E9443030E94830908951092810411
:1014F00080912A018823C1F08091890487FF14C05C
:10150000E4E8F1E08EE1DF011D928A95E9F780E0E1
:1015100090E00E942B0680E090E00E94510610921D
:101520008B040E9483090895ECE7F1E086E0EBCF9D
:101530000E94760A2FEF84E39CE021508040904087
:10154000E1F700C0000088E19AE00FB6F894A89592
:10155000809360000FBE90936000FFCFAAE2B0E0DE
:10156000E4EBFAE00C94DE1E83EB91E0FC010196C3
:101570002091F100208321E08B3B9207B9F7809105
:10158000B401893009F456C0C8F4823009F4B2C0FD
:10159000833009F481C0813071F18091E80083FFCC
:1015A000E6C08091B3019091B4019A3008F0DFC099
:1015B000E92FF0E0EA58F04E0C94061F8A3009F447
:1015C00088C08B3051F78091B301813231F780911F
:1015D000B7019091B801892B01F78091E800877FCE
:1015E0008093E8000E9496078091B50180932A01BC
:1015F0000E94760AD2CF8091B301813A71F6809130
:10160000E800877F8093E8008091B7019091B8014E
:10161000892B61F060E080E090E070E00E943D077F
:101620008091E8008B778093E800B7CF68E08BEB80
:1016300091E0F3CF8091B301813209F0AECF809178
:10164000B7019091B801029708F0A7CF8091E80008
:10165000877F8093E8008091E80082FF18C0909116
:10166000F3008091F200029731F48091F100813013
:1016700011F0863021F48091F1008093C3018091B4
:10168000E8008B778093E8000E94960786CF8091D0
:10169000D4018111E0CF81CF8091B301813A09F06B
:1016A0007CCF8091B7019091B801892B09F075CF5B
:1016B0008091E800877F8093E8008091E80080FFB8
:1016C000FCCF80912A018093F1008091E8008E7711
:1016D000D9CF8091B301813209F05FCF8091E800CA
:1016E000877F8093E8000E9496078091B6018093DF
:1016F000AF0153CF8091B301813A09F04ECF809171
:10170000E800877F8093E8008091E80080FFFCCFAD
:101710008091AF01D8CF803889F0823841F580912F
:10172000B7018F70873018F58093E9008091EB0046
:1017300085FB882780F91092E90006C08091B001EE
:101740009091D301911182609091E800977F9093DE
:10175000E8008093F1001092F1008091E8008E770C
:1017600023C0811116C08091B501813011F18091A3
:10177000E80083FF0AC08091E800877F8093E8003B
:101780008091EB0080628093EB00AA96E3E00C94DA
:10179000FA1E823061F78091B501882389F010929A
:1017A000E9008091E800877F8093E8000E94960717
:1017B000DECF81E0933009F080E08093D301EFCF5A
:1017C0008091B7018F702FEF280F263080F680931D
:1017D000E9002091EB0020FFE2CF933031F48091BB
:1017E000EB0080628093EB00DACF9091EB00906188
:1017F0009093EB0021E030E0A90102C0440F551F97
:101800008A95E2F74093EA001092EA008091EB009B
:101810008860E8CF8111ABCF1091B5011F7780911F
:10182000E3008078812B8093E3008091E800877F3C
:101830008093E8000E9496078091E80080FFFCCF2B
:101840008091E30080688093E30083E0111101C080
:1018500082E08093D4018BCF8058823008F087CF0C
:101860004091B5015091B6014C3D83E0580799F580
:1018700083E08A838AE289834FB7F894DE01139666
:1018800020E03EE051E2E32FF0E0509357008491D6
:1018900020FF03C082958F703F5F8F708A30C8F041
:1018A000895C90E08D939D932F5F243161F74FBF4A
:1018B0008091E800877F8093E8006AE270E0CE01C3
:1018C00001960E943D078091E8008B778093E800A5
:1018D0004ECF805DE6CF2091B7013091B801852FC2
:1018E00099278330910509F160F48130910509F45D
:1018F00072C0029709F03BCF8BE390E0E1E6F1E0A4
:1019000029C08132910509F45AC0829709F02FCF7E
:101910002115310509F469C02130310509F027CFBF
:101920008DE690E0E0EBF0E015C0CA019927413068
:10193000B1F18230910509F43AC0892B09F017CF33
:10194000E0EFF1E0E4918E2F90E0E0EFF1E000971E
:1019500009F40DCF2091E800277F2093E800209123
:10196000B9013091BA018217930708F49C0140E055
:101970002115310509F03EC041113CC08091E800BD
:1019800082FDA1CF8091D401882309F49CCF8530BA
:1019900009F499CF8091E80083FFF0CF94CFEAEC6F
:1019A000F1E0E4918E2F90E0EAECF1E0D0CFEEEAA6
:1019B000F1E0E4918E2F90E0EEEAF1E0C8CF21153E
:1019C000310571F02130310509F0D1CE89E090E088
:1019D000ECE8F1E0BFCF82E190E0ECE9F1E0BACFD2
:1019E00089E090E0E3E7F1E0B5CF84E490E0EDE159
:1019F000F1E0B0CF8091D401882309F464CF853021
:101A000009F461CF8091E80083FD5DCF8091E8000B
:101A100082FDB4CF8091E80080FFAACF9091F300BF
:101A20008091F2002115310519F08830910550F0B0
:101A300041E0089709F040E08091E8008E778093BC
:101A4000E80096CF44914093F1003196215031093E
:101A50000196E8CF803809F08ACE8091E800877F30
:101A60008093E8008091B1018093F10076CE8111DE
:101A70007ECE1091B501123008F079CE8091E80049
:101A8000877F8093E8001093B1010E94960711238D
:101A900081F084E08093D40142E061EC81E00E9417
:101AA0001E0842E261EC82E00E941E088091D4018F
:101AB0005ECE8091E30087FDECCF81E0EBCFA8E024
:101AC000B0E0E5E6FDE00C94DE1E40911404509178
:101AD000150460911604709117042FB7F894809143
:101AE000180490911904A0911A04B0911B042FBFFF
:101AF000841B950BA60BB70B11E084369105A1054D
:101B0000B10578F10E94F506DC01CB010296A11D1A
:101B1000B11D89839A83AB83BC838091230190910B
:101B20002401845E9B4F20912201422F50E02530FA
:101B300010F044E050E0BE016F5F7F4F0E94191F1C
:101B400082E090E00E94461E182F882351F00E94E8
:101B5000D806609314047093150480931604909330
:101B60001704812F2896E3E00C94FA1EEF92FF925F
:101B70001F93CF93DF9300D000D00F92CDB7DEB785
:101B80007B0180E090E00E94461E182F81111AC050
:101B900010E08091250490912604A0912704B09133
:101BA0002804F70180839183A283B383812F0F9050
:101BB0000F900F900F900F90DF91CF911F91FF909A
:101BC000EF90089580911501482F50E0882311F07F
:101BD00041E050E06091160170911701645E7B4F07
:101BE000CE0105960E94191F4091290450912A04A4
:101BF00060912B0470912C042FB7F89480911804F5
:101C000090911904A0911A04B0911B042FBF841B5A
:101C1000950BA60BB70B84369105A105B10538F4D9
:101C20008DE194E00E9405089D818917B9F181E05A
:101C300090E00E94461E882309F4AACF80911D01DE
:101C4000482F50E0853010F044E050E060911E01D4
:101C500070911F01645E7B4FCE0101960E94191F97
:101C60008DE194E00E9405089D81891391CF0E9427
:101C7000D8066093290470932A0480932B049093D0
:101C80002C0489819A81AB81BC8180932504909337
:101C90002604A0932704B09328047BCF80911D04D1
:101CA00090911E04A0911F04B091200489839A830F
:101CB000AB83BC83E6CFA0E0B0E0E1E6FEE00C94AD
:101CC000D91E7C016B0164E670E088E70E94071C66
:101CD000EC0197FD12C000E010E0F701E00FF11FEA
:101CE000849164E670E00E94761CEC010F5F1F4F48
:101CF000C016D10611F097FFF0CF0E94F81C81E0CA
:101D0000CD2B09F080E0CDB7DEB7E8E00C94F51EEE
:101D100080911204882369F080910F04882349F090
:101D200062E070E08EEA90E00E945B0E81111092FA
:101D30000F040895A4E0B0E0E0EAFEE00C94DF1E9A
:101D4000809112048823F9F00E94D806DC01CB01AF
:101D5000805A9541AF4FBF4F80930B0490930C0472
:101D6000A0930D04B0930E0480910F0481110BC059
:101D700062E070E08CEA90E00E945B0E882319F02C
:101D800081E080930F042496E2E00C94FB1E1F92E6
:101D90001FB61F9211248F939F93AF93BF9380918F
:101DA000D201811113C08091180490911904A0915F
:101DB0001A04B0911B044196A11DB11D8093180413
:101DC00090931904A0931A04B0931B04BF91AF9190
:101DD0009F918F911F901FBE1F9018952FB7F89459
:101DE0008091180490911904A0911A04B0911B04D9
:101DF0002FBF08959C014FB7F894809118049091DB
:101E00001904A0911A04B0911B044FBF821B930BBD
:101E100008950F931F93CF93DF93C62FD42F122FC4
:101E20008823A9F060937F040E94EE0E9093AD0189
:101E30008093AC01C77081E001C0880FCA95EAF7B2
:101E40000E94650ADF91CF911F910F9108958091B3
:101E50007F04681338C08091AC019091AD010E945D
:101E6000FA0E883C910578F5CD130FC0812F0E94A2
:101E7000D509812F0E943B0AD77081E001C0880FED
:101E8000DA95EAF70E946F0ADDCFC77001E0802F74
:101E900001C0880FCA95EAF70E946F0A80E28D0F91
:101EA000883050F48D2F877001C0000F8A95EAF7B3
:101EB000802F0E94650ADACF812F0E94D509812FD9
:101EC0000E943B0ABFCFC77081E001C0880FCA954E
:101ED000EAF7D8CFA0E0B0E0E0E7FFE00C94D91E2D
:101EE0007C01FC0184818823A9F161E0C7010E9483
:101EF000AA05EC01F7018581C034FEE7DF0779F020
:101F0000C1342EE7D20791F1FE01E851FC47E730DA
:101F1000F10508F057C0E058F04E0C94061F909160
:101F2000810492728823D9F086E2923209F08FE21E
:101F30000E94D509809188048770882359F0F701A1
:101F40008581882339F080918A0482FF03C082E072
:101F50000E940503CDB7DEB7E8E00C94F51E86E2DB
:101F6000923209F08FE20E943B0AE4CF9091810403
:101F70009272882329F087E29232D1F280E3D8CF9F
:101F800087E2923281F380E3EECF26E241EE61EE0A
:101F90000E94090FCFCF27E245EE65EEF9CF26E28A
:101FA00041EE60EEF5CF27E245EE64EEF1CF26E29A
:101FB00041EE62EEEDCF27E245EE66EEE9CF28E294
:101FC00041E0EBCF81110CC0C631DC4709F00CC1F8
:101FD000809180048111F1C089E20E94AB06E8C0C3
:101FE00010927F04CE019057839708F0CFC084E011
:101FF00090E00E942A1F90938A0480938904FE0136
:10200000E150F047E232F10520F4E957F04E0C942C
:10201000061F8091890481608093890460918904FE
:1020200070918A0484E090E00E945E1F0E94760A0C
:1020300081CF80918A04886080938A04EFCF809159
:1020400089048260E9CF809189048460E5CF809122
:1020500089048860E1CF80918A048160EDCF80910E
:102060008A048260E9CF809189048061D5CF809114
:1020700089048062D1CF809189048064CDCF0E9491
:10208000760A809189048068C7CF809189048C602A
:10209000C3CF80918A048360CFCF809189048E7FE3
:1020A000BBCF80918A04877FC7CF809189048D7FC1
:1020B000B3CF809189048B7FAFCF80918904877FD4
:1020C000ABCF80918A048E7FB7CF80918A048D7FB9
:1020D000B3CF809189048F7E9FCF809189048F7DBB
:1020E0009BCF809189048F7B97CF0E94760A809145
:1020F00089048F7791CF80918904837F8DCF8091E0
:102100008A048C7F99CF8091890482FB992790F96A
:1021100021E0922790FB82F990FB83F97DCF80919B
:102120008A04982F909591708E7F892B90FB81F96E
:1021300083CF90918904892F8F7B96FF80646CCF29
:102140000E94760A90918904892F97FB87F980581D
:1021500063CF61E08EE090E00E94401F5FCF60E0BF
:10216000F9CF90918904892F8F7E94FF806154CF9D
:1021700090918904892F8E7F90FF81604DCF90913F
:102180008A04892F877F93FF886056CFC6318CE7FA
:10219000D807A9F4809181048A7A91E0811101C065
:1021A00090E090938004882331F085E30E947706C5
:1021B0000E948309BFCE89E2F9CF85E30ECFCA35ED
:1021C0009CE7D90709F49BC008F072C0C130FCE756
:1021D000DF0709F492C0C3302CE7D20709F487C0A7
:1021E000C115DC4709F476C0F701858100811181B2
:1021F000882309F488C0C8010E947605C82F682F7B
:10220000C8010E949602B8018C2F0E944B030E94C5
:102210005D04D82FC92FF701C580D680D2948FE0F6
:10222000D8228091880487708823F9F00C2DCC2067
:10223000E9F0892F807F803461F080E28D0F883053
:10224000A0F0892F807E803221F4D23070F0DD2022
:1022500061F080918A0482FF08C082E00E94050339
:1022600080918804877001E0811100E08C2F8295B5
:102270008F70883009F43BC108F069C0843008F0E1
:1022800047C01C2F1F70823008F472C0C07FC0325C
:1022900011F01295107FDD2309F4A0C0D13009F4AC
:1022A000E9C0CC2009F4F5C0DD2009F4B5C075C043
:1022B000CB358CE7D80729F1CC35DC4709F094CF32
:1022C00080918A0482FB882780F991E089270E9407
:1022D0006C098ACF0E94760AEFEFF4E32CE0E1501C
:1022E000F0402040E1F700C000000E9428076FEF97
:1022F0007FEF80E090E00E945E1F0E94980A81E0DC
:10230000E6CF80E0E4CFC8010E94C902C82F7BCF8E
:10231000843009F4CFC00023A9F08091880480FDA7
:1023200011C0F70115828695869586950E947402E4
:10233000C7010E946A0F80918804869586958695CC
:102340000E94840260E0C7010E94AA0503CE893082
:1023500009F459C18A5F8F708230E8F6D23F09F0E4
:1023600063C18C2F8F71C1105CC10E947402F4C0D4
:10237000C03110F01295107FCC20B9F0112369F014
:1023800080E28D0F883010F0D11109C08091810456
:10239000812B809381040E9483098D2F2FC080910F
:1023A0008B04812B80938B04F6CF8D2F0E943B0AE8
:1023B000112309F4B0CF80E28D0F883010F0D111D5
:1023C00004C0812F0E94430306C0109580918B04A6
:1023D000812380938B040E9483099DCF80918A047E
:1023E00082FD16C0CC2069F0112339F08091810460
:1023F000812B809381040E94830980E00E94D5098B
:102400008ACF80E00E943B0A112309F484CFD9CF00
:10241000CC20A1F0D11004C0812F0E94650A7BCF8F
:10242000F1E0DF1278CF80918204912F9823191761
:1024300009F471CF812B809382046DCFD1106BCFC3
:10244000812F0E946F0A90918204812F8923882313
:1024500029F0812F809589238093820480918304C1
:10246000912F9823992309F456CF10951823109390
:10247000830451CFCC2029F025E02D1508F44BCF53
:10248000CBCF34E03D1508F446CF812F0E946F0A70
:1024900042CFDD20D1F3D93349F48FEF97EEE3E05B
:1024A00081509040E040E1F700C000008D2F0E9475
:1024B0003B0A31CF8C2F869586958370882369F0EF
:1024C000813009F028CF8D2F9C2F9370C11002C04E
:1024D00080E090E00E9451061ECF8D2F9C2F9370BC
:1024E000C11002C080E090E00E942B0614CF8C2F18
:1024F0008370811142C0C1102FC04D2F4295469567
:102500004770440F440F2D2F2F7030E0042E02C06F
:10251000220F331F0A94E2F780E090E0D4FF09C055
:102520008FE090E002C0880F991F4A95E2F78095EE
:102530009095C695C695C370C230B1F0C33089F08E
:102540004091840450918504C13049F0822B932B33
:10255000842395230E946A020E941A06DCCE242B53
:10256000352B822B932BF6CF822B932B2091840437
:102570003091850482279327EDCFCC2091F1C0FFC5
:10258000EBCF4D2F429546954770440F440F2D2FAA
:102590002F7030E0042E02C0220F331F0A94E2F79E
:1025A00080E090E0D4FF09C08FE090E002C0880F87
:1025B000991F4A95E2F780959095C695C695C37088
:1025C000C230C1F0C33099F0409186045091870425
:1025D000C13059F0822B932B842395230E946F02E4
:1025E000BBCF823008F4B8CFCCCF242B352B822B35
:1025F000932BF4CF822B932B209186043091870468
:1026000082279327EBCFCF70CC2039F08C2F0E94FC
:1026100074028D2F0E94650A9FCF8D2F0E946F0A32
:102620008C2F0E94840298CFD33F78F4D03FC1F022
:10263000D13F09F440C0CC2009F464C0DD2009F486
:102640005EC08D2F0E94D50987CFD33F11F1D43FB3
:1026500071F1C110F3CFD11063C08C2F8F71E1CF16
:10266000CC20A1F0F4E0FD1508F476CFCF7181E025
:1026700090E09C0102C0220F331FCA95E2F78091BF
:1026800086049091870482279327A8CF35E0D3163C
:10269000EBCF80E090E0CC2009F4A0CFCF7181E0B7
:1026A00090E002C0880F991FCA95E2F797CF8091FA
:1026B0008A0482FD06C08C2F8F71CC2009F4B1CF23
:1026C00054CECC2089F0CF718C2F0E94740280915F
:1026D0008A0482FF07C0E8E0CE9FC0011124836016
:1026E000809388048C2F41CE81E00E940503F1E0A5
:1026F000FD1508F031CF82E00E9405032DCF8C2F0D
:102700008F7133CEDD2009F4A8CFD93349F42FEFF0
:1027100037EE83E0215030408040E1F700C00000F8
:102720008D2F0E943B0A18CF8091CC04803178F421
:102730008091CB04882359F0E0918D0420918C0482
:102740003091C7044091C60457E02E1301C008958C
:102750006E2F70E05E9FF0011124DF01A257BB4F86
:1027600014968C911497882361F111968C9111978E
:10277000831327C08C91841324C015968C911597D0
:1027800081111FC012968D919C91A091C804B091A7
:10279000C9048A1B9B0B883C910598F48091CC045A
:1027A0008F7080618093CC04EC56FB4F80818F70DA
:1027B0008061808386EC94E00E946A0F0E94FB0295
:1027C0000895FB013196E770C0CFADE0B0E0EBEECD
:1027D000F3E10C94D41E8C0186E0F801DE0118961A
:1027E00001900D928A95E1F7F801E080F580A280D2
:1027F000B380C48086EC882E84E0982E7090CA0442
:10280000711020C0CC20D9F0FF2009F419C1C801F3
:102810000E94D905882309F413C187E0F801D40187
:1028200001900D928A95E1F7F1E0CF1206C08091F8
:10283000C6049091C7040E94CA050E949413FF2405
:10284000F39451C0D090CB048091C8049091C904F6
:102850009501281B390BDD2009F4BAC0283C31054D
:1028600008F090C0CC2059F39091C704C1808091AA
:10287000CC04803108F058C0C91214C09091C6042D
:102880009E1110C0F1104AC08F7080618093CC04FB
:1028900086EC94E00E946A0F8091CC04F801868354
:1028A000F12C21C0F1103AC040E06C2D8E2D0E9419
:1028B000B00840E06C2D8E2D0E94B008F82E8111DA
:1028C000EFCF888599850E94CA05292F22952F7000
:1028D000903470F49F702230A0F09923B1F0F80189
:1028E0009681903190F48F2D2D96EDE00C94F01E92
:1028F0002A5F2F70223068F0C8010E946A0FFD2CF9
:10290000F2CF992311F0882371F3805E883058F359
:10291000F3CF803F40F3815F8230F9CF8091CC04C8
:1029200081608093CC04BCCFC91207C09091C604CB
:102930009E1103C0FF2009F46CC0C8010E94D90594
:10294000882309F47DC0FF2009F47AC08091CC046B
:10295000803278F02091C6043091C7043A832983ED
:10296000BC82AB827D821E828F83CE0101960E9443
:102970006A0F87E0F801A6ECB4E001900D928A9509
:10298000E1F75BCF8091CC04803150F486EC94E089
:102990000E946A0F87E0F40111928A95E9F780CFCF
:1029A000CC2009F44CCF2091C70491812913C5CFC5
:1029B0009091C6049E11C1CFF110BFCF8683C8018C
:1029C0000E946A0F87E0F40111928A95E9F737CFE8
:1029D000283C3105F8F6CC2009F431CFFF2081F1F5
:1029E0009091C7048181981321C08091C6048E11F3
:1029F0001DC08091CC0480FD10C0803170F08683B2
:102A0000807F803F39F08681982F907F905F8F7014
:102A1000892B8683C8010E946A0F87E0F801A6EC23
:102A2000B4E001900D928A95E1F709CFC8010E94A8
:102A3000D90581119ECF8091CC0481608093CC0414
:102A4000C8010E946A0FFBCEABE1B0E0EAE2F5E11B
:102A50000C94DE1E4E8B5F8B688F798F8A8F9B8FD5
:102A6000911110928B041D8A86E0FE017696DE019C
:102A70001F9601900D928A95E1F78B89882329F0A2
:102A800061E0CE010F960E94AA0587E0FE013F9605
:102A9000DE01189601900D928A95E1F7CE01089615
:102AA0000E94E51381112BC087E0FE013896DE01FC
:102AB000119601900D928A95E1F720918C04409136
:102AC0008D048C858823D9F030E0C9010196877088
:102AD000992750E084179507E9F097E0929FD0017D
:102AE000939FB00D1124A257BB4FFE013196019068
:102AF0000D929A95E1F780938C040E94FB0217E0F7
:102B000080918D0490918C04891312C06B96E3E040
:102B10000C94FA1E0E94760A10928C0410928D0476
:102B200087E0E6ECF4E0DF011D928A95E9F7E7CF54
:102B3000189FC001112482579B4F0E94E5138823E0
:102B400029F380918D0490E00196877099278093F6
:102B50008D04D6CFA6E0B0E0E0EBF5E10C94DD1EED
:102B60000E94EE0E8C018091330490913404801702
:102B7000910779F019821A820E94EE0EBC014981F8
:102B80005A8180E090E00E94241510933404009351
:102B900033042696E4E00C94F91EA0E1B0E0E3EDE6
:102BA000F5E10C94D41E1A821982FE01339686E058
:102BB000DF011D928A95E9F78BE2A82E81E0B82EFD
:102BC0008E010F5F1F4F4801EE24E394F12C27E3A1
:102BD000C22E21E0D22EF50181915F018F3F09F4D1
:102BE00041C0F894E82FE295EF70F0E021A18F70DA
:102BF000A70102C0440F551F8A95E2F7CA01922F20
:102C0000982B91A392A18095892382A3789400C0E8
:102C1000EFE2F1E031E0712C21912F3F09F485C002
:102C2000A22FA295AF70A05EB0E08C9190E02F70C3
:102C300002C0959587952A95E2F78170811175C03C
:102C4000832F782A330FCE16DF0631F7F50131973F
:102C500080818F3F11F00E94010650EA5A95F1F7EA
:102C6000D8017C920F5F1F4FBFE2AB16B1E0BB06ED
:102C700009F0B1CF48E050E0B40188EC91E00E9447
:102C80000C1F0091D10110E00B521E4F892B09F44B
:102C90004EC088E0F401A8ECB1E001900D928A9555
:102CA000E1F781E08093AB010E94EE0E9093AA01C0
:102CB0008093A90180912D04882309F491C01A867C
:102CC00019861C861B868091AE018A3008F051C09F
:102CD0007E01E9E0EE0EF11C46EB5DE0B701C801B4
:102CE0000E9432096701882309F468C04FE55DE05E
:102CF000B701C8010E943209882309F45FC010920D
:102D0000AE018091D00190E044E050E0B6018B52DA
:102D10009E4F0E940C1F21E02093A801892B09F0EF
:102D20003FC06096EDE00C94F01E80E08ACF809169
:102D3000AB01882309F4BECF8091A9019091AA012B
:102D40000E94FA0E059708F4B5CF44E050E068EC15
:102D500071E0C8010E940C1F892B41F084E0E8EC6F
:102D6000F1E0D80101900D928A95E1F71092AB0144
:102D7000A1CF8091A6019091A7010E94FA0E843FF5
:102D8000914008F0A5CF8091A801882351F2FE015F
:102D9000399684E0DF011D928A95E9F71092A80127
:102DA000E091D001F0E0EB52FE4F89859A85AB852A
:102DB000BC8580839183A283B383B3CF8091AE011E
:102DC0008F3F39F40E94EE0E9093A7018093A601E5
:102DD000DACF8F5F8093AE018A3008F492CFF2CFC2
:102DE000F80180819181A281B38180931D04909329
:102DF0001E04A0931F04B09320048DE194E00E9470
:102E0000050880931C04C0902104D0902204E09017
:102E10002304F09024048091A2019091A301A09139
:102E2000A401B091A501C816D906EA06FB0609F46B
:102E300078CFC092A201D092A301E092A401F092B7
:102E4000A5010E94D806C61AD70AE80AF90AC09254
:102E50002F04D0923004E0923104F092320461CF1A
:102E6000CDB7DEB72C970FB6F894DEBF0FBECDBF3F
:102E700085B7806885BF85B7806885BF84B7877F41
:102E800084BF0FB6F894A895809160008861809304
:102E90006000109260000FBE80E890E00FB6F894DA
:102EA00080936100909361000FBE8FEF95E0909347
:102EB0007901809378010E94E6070E94550880916D
:102EC000E20084608093E20078948091D4018823AA
:102ED00099F08091E9001091EC0017951127179552
:102EE0008F70182B1092E9008091E80083FD0E94FA
:102EF000AE0A1F701093E90082E084BD93E095BD97
:102F00009AEF97BD80936E0010922F0410923004B8
:102F1000109231041092320488EC90E02091E3008A
:102F200027FD4CC2AFE3BCE91197F1F700C00000E8
:102F30000197009799F70E94E6071092D40110922A
:102F40002D0410922E041092000141C283E090E003
:102F50000E94221F90E00E946A021092070480E8FB
:102F60008093E6010E94011C6BE070E08BE092E030
:102F70000E945B0E882309F43FC08091070465E03E
:102F800070E081FDB3C086E092E00E945B0E882372
:102F900099F16DE070E084EF91E00E945B0E882370
:102FA00059F10E94D80669877A878B879C87DC0154
:102FB000CB01805A9541AF4FBF4F80930B04909344
:102FC0000C04A0930D04B0930E04E7E0F2E080E05F
:102FD00092E0DF019C011D9221503040E1F78FEF1C
:102FE0009FEF90930A048093090481E08093120478
:102FF00080930F041092080480912D04811102C067
:103000000E945B1D81E091E09093560480935504EB
:1030100066246394712C8091D401853049F48091A9
:10302000D401853009F465C00E94760A0E941A0610
:103030000E94CD150EED11E055EDE52E51E0F52E77
:10304000D701F80191918D9121E0E63EF20709F454
:10305000A3C09817B9F380902D04D12CD701CD903F
:103060007D01F80191908F019C1441F19C24B12CB9
:10307000AA24A394892D8A218823C1F08820B1F045
:10308000B982DA820E94EE0E9C838B83F1E0FD838D
:1030900091E08C2D8A21811101C090E09E834981AD
:1030A0005A816B817C818D810E942415B394AA0C76
:1030B00028E0B212DFCFF8013197C082D39438E014
:1030C000D312CCCF0E94F506D0901204D1106EC05E
:1030D0000E949A0E0E941A0690911304891709F40F
:1030E0009ACF809313040E94D80695CF81E092E096
:1030F0004CCF8091D401843031F10E94880E10921F
:10310000D20148E150E080E40FB6F894A8954093CE
:1031100060000FBE8093600083B7817F846083BFAF
:1031200083B7816083BF7894889583B78E7F83BF90
:103130000FB6F894A8958091600088618093600034
:10314000109260000FBE8091D301882309F467CFED
:103150000E94CD15E5EDF1E08191811105C091E06E
:10316000ED3DF907C9F75BCF80E189BD82E189BDFB
:1031700009B400FEFDCF8091D8008F7D8093D800E8
:103180008091E00082608093E0008091E00081FD0A
:10319000FCCF0E94760A43CF98135DCF0E94AA15F8
:1031A00080911204882309F495CFD12C80911004CA
:1031B000909111040E94FA0EC29730F00E94EE0E18
:1031C00090931104809310048091090490910A0453
:1031D000892B71F08091080481110AC00E949A0E17
:1031E0002091090430910A0480E02115310539F558
:1031F00080910F048823F9F00E94D80669877A87A6
:103200008B879C8780910B0490910C04A0910D04F6
:10321000B0910E0429853A854B855C85281B390BB6
:103220004A0B5B0BDA01C9018F3F9F4FAF4FBF477E
:1032300010F40E94880ED1104BCF4CCF8F5F082F17
:1032400010E07301082E02C0EE0CFF1C0A94E2F796
:10325000A70142235323452B89F39091070490FD46
:1032600043C098013695279536952795922F8295DC
:10327000880F80763FE1380F80930D012093100175
:1032800030930E019093110124E630E047E050E0C6
:103290006BE071E088E70E94A61C892B09F0A8CF9B
:1032A000A80125E0440F551F2A95E1F780910704F6
:1032B00080FD22C0495F5D4F04E610E020E230E06F
:1032C00060E488E70E94CD1C892B09F091CFE0943F
:1032D000F0948091090490910A04E822F922F09276
:1032E0000A04E092090484CF880F880F880F37E022
:1032F000380F20E093E0C0CFE7EEF1E080E2DF019D
:103300001D928A95E9F7EBE3F1E0FA87E98707E395
:1033100011E09FE3292E91E0392EA985BA856D91A0
:10332000BA87A987F80181918F01840F952F911D8C
:103330009C01295F3D4F2901E62FF0E0E951FE4F46
:1033400020E030E087E0982E921AC62C022E01C0B1
:10335000CC0C0A94EAF7520190E0D5018D915D0101
:103360008C21692D691B677070E0B82F062E01C093
:10337000BB0F0A94EAF77195619571096770772719
:1033800001C086956A95EAF78B2B6081682B608374
:103390009F5F983011F72F5F3F4F319628303105EE
:1033A00089F6E985FA852E163F0609F0B6CF04E6C0
:1033B00010E020E230E047EE51E082CF81E08093E0
:1033C0002D0480932E04809300010E94581D80914B
:1033D00000018091000191E08927880F880F809378
:1033E000D10194E0981B9093D00184E90E940106DA
:1033F00086E60E94010687E90E94010686EC0E948B
:1034000001060FE211E077E3E72E71E0F72EF801F5
:1034100081918F018F3F11F00E940106E016F106A5
:10342000B1F788E0E5EDF1E0DF01282F1D922A9544
:10343000E9F7E8ECF1E0DF011D928A95E9F780E019
:1034400090E00E942A1F863E9E4F09F466C066EEF9
:103450007EEF80E090E00E945E1F60E082E090E0FE
:103460000E94401F81E090E0909385048093840443
:1034700061E083E090E00E94401F60E074E184E03E
:1034800090E00E945E1F60E086E090E00E94401F96
:103490006FEF87E090E00E94401F40E050E0BA01EB
:1034A00088E090E00E94521F60E084E290E00E9479
:1034B000401F60E087E190E00E94401F60E08CE0E8
:1034C00090E00E94401F60E08DE090E00E94401F6D
:1034D00019821A821B821C821D821E821F821886FC
:1034E00048E050E068E170E0CE0101960E94301F94
:1034F00040E050E0BA0180E290E00E94521F40E0BC
:1035000050E0BA018FE090E00E94521F40E050E08E
:10351000BA0183E190E00E94521F82E090E00E9495
:10352000221F8093DD0184E090E00E942A1F909387
:103530008A04809389040E94CD15EFEFF6E721E01D
:10354000E150F0402040E1F700C000000E94CD159E
:10355000E0912E0481E0E827EE0FEE0FF0E0EB5251
:10356000FE4F808181FFF2CC6FEF7FEF80E090E033
:103570000E945E1F0E94280778941F921FB61F9218
:1035800011248F939F93AF93BF93809118049091D0
:103590001904A0911A04B0911B040196A11DB11D3C
:1035A0008093180490931904A0931A04B0931B04F9
:1035B000BF91AF919F918F911F901FBE1F90189543
:1035C0001F920F920FB60F9211242F933F934F9398
:1035D0005F936F937F938F939F93AF93BF93EF937B
:1035E000FF938091E10082FF09C08091E20082FF99
:1035F00005C08091E1008B7F8093E1008091DA002B
:1036000080FF24C08091D80080FF20C08091DA0024
:103610008E7F8093DA008091D90080FF9BC080E18B
:1036200089BD82E189BD09B400FEFDCF81E08093B0
:10363000D4018091B201811109C00E94E6070E9465
:1036400055088091E20084608093E2008091E1005F
:1036500080FF17C08091E20080FF13C08091E200DC
:103660008E7F8093E2008091E20080618093E2008F
:103670008091D80080628093D80019BC85E0809347
:10368000D4018091E10084FF29C08091E20084FF91
:1036900025C080E189BD82E189BD09B400FEFDCF6E
:1036A0008091D8008F7D8093D8008091E1008F7E3B
:1036B0008093E1008091E2008F7E8093E200809110
:1036C000E20081608093E2008091B101882309F4D7
:1036D00047C084E08093D4018091D4018091E100BF
:1036E00083FF27C08091E20083FF23C08091E10027
:1036F000877F8093E10082E08093D4011092B10132
:103700008091E1008E7F8093E1008091E2008E7FC6
:103710008093E2008091E20080618093E20042E0C9
:1037200060E080E00E941E088091F0008860809335
:10373000F000FF91EF91BF91AF919F918F917F9199
:103740006F915F914F913F912F910F900FBE0F900E
:103750001F90189519BC1092D4011092B20176CF27
:103760008091E30087FF02C083E0B4CF81E0B2CF55
:103770001F920F920FB60F921124FF920F931F9377
:103780002F933F934F935F936F937F938F939F9369
:10379000AF93BF93CF93DF93EF93FF9309EE10E0C6
:1037A000F8018081C091EC00C795CC27C7958F7038
:1037B000FC2EF82A1082C0EFD0E08881877F8883B2
:1037C00078940E94AE0AF80110828881886088830C
:1037D000CF2DCF70C083FF91EF91DF91CF91BF913B
:1037E000AF919F918F917F916F915F914F913F9199
:1037F0002F911F910F91FF900F900FBE0F901F9070
:1038000018951092B9008CE08093B8000895A0E05C
:10381000B0E0EDE0FCE10C94D61EB82EEB010E9466
:10382000EE0E6C01EE24E394F12CC431D10560F06E
:1038300025E0E22EF12CCF3FDC0731F0CE0164E130
:1038400070E00E94BB1E7B0184EAA82E94E8992EAA
:103850001092BC00A092BC000E94EE0E182F092FFF
:103860008091BC0087FF0CC08091B900887F8830B0
:10387000F9F08091B900887F8031D1F00FEF08C056
:10388000812F902F0E94FA0EE816F90648F70EEFE6
:103890001FEFCF3FDC07E1F2C6010E94FA0EC81706
:1038A000D907B0F6C801CDB7DEB7EBE00C94F21E35
:1038B000B092BB009092BC000E94EE0E182F092F10
:1038C0008091BC0087FF0AC02091B900287F283171
:1038D00011F0203499F600E010E0E4CF812F902F12
:1038E0000E94FA0EE816F90658F7D1CF0F931F93EE
:1038F000CF93DF93EB018093BB0084E88093BC00FF
:103900000E94EE0E182F092F8091BC0087FF11C076
:103910002091B900287F81E090E0283211F480E006
:1039200090E0919581959109DF91CF911F910F9131
:103930000895CF3FDC0741F3812F902F0E94FA0EAC
:10394000C817D90708F78EEF9FEFEECFA0E0B0E0E1
:10395000ECEAFCE10C94D91E6B018A01F22EE32EF5
:10396000622F732F0E94071CAC01E6010C0D1D1D78
:10397000C017D10711F057FF09C084E98093BC003C
:10398000CA01CDB7DEB7E8E00C94F51E6F2D7E2D91
:1039900089910E94761CAC01EBCFA0E0B0E0E3ED92
:1039A000FCE10C94D91EC62F6A017901B8010E946E
:1039B000071C9C0197FD0DC0B8018C2F0E94761C3E
:1039C0009C01E601EC0CFD1CCE15DF0511F037FF64
:1039D00009C084E98093BC00C901CDB7DEB7E8E037
:1039E0000C94F51EB80189910E94761C9C01ECCFC5
:1039F00084E98093BC0008958EE14A9B03C0815006
:103A00008111FBCF4A9BFECF08955A9880E28A9598
:103A1000F1F75A9A0895FC013BE03A95F1F798E0E6
:103A200020E080E031E040E14A95F1F7880F4A9BC1
:103A300002C08160232742E04A95F1F7000040E18F
:103A40004A95F1F791509111EECF90E19A95F1F7E7
:103A500099B132E03A95F1F7000040E14A95F1F76B
:103A600092FB992790F992272081920F90830895D5
:103A7000A1E0B0E0EEE3FDE10C94DB1E19828C01C5
:103A80007C01E60EF11C0E151F0541F481E09981C1
:103A9000911180E02196E6E00C94F71E0E94FC1C38
:103AA000CE0101960E940B1DF80181938F01EBCF8F
:103AB000529A5A9A089552985A9AEA9AE9E6F0E088
:103AC00080818F7C808308956150770B91E001C0E5
:103AD000990F6A95EAF7692F90E021E0611108C01B
:103AE000992399F05A9A80E28A95F1F75A980895A5
:103AF000362F3823332339F05A9A922730E23A95F9
:103B0000F1F76695EBCF5A98F9CF5A98ECCFFF9220
:103B10000F931F93CF93DF93EC018C01060F111DC0
:103B2000C017D10729F4CDB7DEB7E5E00C94F81E35
:103B3000F9900E94051D68E08F2D0E94641DF0CF52
:103B40001F920F920FB60F9211240F931F932F9372
:103B50003F934F935F936F937F938F939F93AF9315
:103B6000BF93EF93FF93CF93DF930F92CDB7DEB761
:103B700019820E94FC1CCE0101960E940B1D082F89
:103B8000069506950695982F92959570202F25708D
:103B9000920F292F237096959695920F98279770DC
:103BA0008981892B81115CC0043008F059C080E103
:103BB0008A95F1F75A9A529A82E08A95F1F700C0F5
:103BC0005A9888E0089F80011124D801AE5EBE4F4C
:103BD0001696ED91FC9117973097A9F060913F01EF
:103BE0007091400114962D913C911597260F371F27
:103BF00011968D919C911297680F791F13964C9195
:103C000013978C910995F801EE5EFE4F6381662350
:103C100051F020913F013091400184819581820FC4
:103C2000931F0E94871D0E94051D80E18A95F1F770
:103C30005A9852985A9A80E18A95F1F7F801EE5E07
:103C4000FE4F6081662351F020913F013091400189
:103C500081819281820F931F0E94381D0E94FC1C5B
:103C60000F90DF91CF91FF91EF91BF91AF919F9115
:103C70008F917F916F915F914F913F912F911F9104
:103C80000F910F900FBE0F901F9018950F931F93D9
:103C9000CF93DF938C0104970CF065C0F894529A8F
:103CA0005A9885E08A95F1F70000C02FC695C57037
:103CB000802F8570C80F8C2F8370C695C69593E0B2
:103CC000000F111F9A95E1F7C80FC8018C2BEC016A
:103CD0000E94051D00C068E08C2F0E94641D90E1C9
:103CE0009A95F1F752985A9A4A9B35C087E090E02E
:103CF0004A9933C0F801EE5EFE4F6381662361F09E
:103D000020913F013091400184819581820F931F62
:103D10000E94381D882321F10E94FC1C80E28A95B4
:103D2000F1F75A98529A90E19A95F1F7F801EE5E00
:103D3000FE4F6081662351F020913F013091400198
:103D400081819281820F931F0E94871D0E94051D11
:103D5000789481E009C000C0C7CF0197009749F46B
:103D6000529A5A9A789480E0DF91CF911F910F91E7
:103D7000089500C0BDCFAA1BBB1B51E107C0AA1FFD
:103D8000BB1FA617B70710F0A61BB70B881F991FFC
:103D90005A95A9F780959095BC01CD0108952F9271
:103DA0003F924F925F926F927F928F929F92AF92CB
:103DB000BF92CF92DF92EF92FF920F931F93CF9318
:103DC000DF93CDB7DEB7CA1BDB0B0FB6F894DEBFAF
:103DD0000FBECDBF09942A88398848885F846E84D5
:103DE0007D848C849B84AA84B984C884DF80EE801F
:103DF000FD800C811B81AA81B981CE0FD11D0FB628
:103E0000F894DEBF0FBECDBFED010895EE0FFF1F8A
:103E10000590F491E02D0994FB01DC0104C08D9123
:103E20000190801921F441505040C8F7881B990B2C
:103E30000895FB01DC0102C001900D9241505040F9
:103E4000D8F70895F999FECF92BD81BDF89A9927C8
:103E500080B50895A8E1B0E042E050E00C94661F00
:103E6000DC01A40FB51F4150504048F0CB01840F36
:103E7000951F2E910E94411F41505040D0F7089548
:103E8000262FF999FECF92BD81BDF89A019700B413
:103E9000021639F01FBA20BD0FB6F894FA9AF99AB3
:103EA0000FBE08950396272F0E94411F0E94401FB6
:103EB000252F0E94411F242F0C94411F0196272F6C
:103EC0000E94411F0C94401FDC01CB01FC01F999B9
:103ED000FECF06C0F2BDE1BDF89A319600B40D9256
:103EE00041505040B8F70895F894FFCF8B0BB10BB9
:103EF000B70BB10BB70B0A0C2C0CB70B2A0D370DF7
:103F0000CF0FD30FC50FCB0FD70FDB0FDF0F4D1028
:103F1000B81055101F102310591027105D1069108C
:103F20003310B11037106D103B10711099103F1005
:103F30007510A01045107B1083102B1061102F10EE
:103F4000651049107F108F10A910AF101910511073
:023F5000BF10A0
:103F52000139070D0924093C072B090021007F22A2
:103F62000003000000010000000000000004010046
:103F72000000040500000000000001946697C6F4EA
:103F8200F5F6F73133323600081018181008001C05
:103F920004E200E900EA00B500B600B700CD0083F4
:103FA20001CC008A019201940121022302240225FC
:103FB20002260227022A02B300B4006F0070009F9B
:083FC20001CB019F02A00200E7
:00000001FF
